{
  "contractName": "Course",
  "abi": [
    {
      "constant": true,
      "inputs": [
        {
          "name": "",
          "type": "uint256"
        }
      ],
      "name": "arr",
      "outputs": [
        {
          "name": "",
          "type": "address"
        }
      ],
      "payable": false,
      "stateMutability": "view",
      "type": "function",
      "signature": "0x71e5ee5f"
    },
    {
      "constant": true,
      "inputs": [
        {
          "name": "",
          "type": "uint256"
        }
      ],
      "name": "courses",
      "outputs": [
        {
          "name": "rubric",
          "type": "uint256"
        },
        {
          "name": "course_name",
          "type": "string"
        },
        {
          "name": "instructor",
          "type": "string"
        },
        {
          "name": "venue",
          "type": "string"
        },
        {
          "name": "capacity",
          "type": "string"
        }
      ],
      "payable": false,
      "stateMutability": "view",
      "type": "function",
      "signature": "0x96f979d2"
    },
    {
      "constant": true,
      "inputs": [],
      "name": "no_courses",
      "outputs": [
        {
          "name": "",
          "type": "uint256"
        }
      ],
      "payable": false,
      "stateMutability": "view",
      "type": "function",
      "signature": "0xd0d410a0"
    },
    {
      "constant": true,
      "inputs": [
        {
          "name": "",
          "type": "uint256"
        }
      ],
      "name": "rubric_list",
      "outputs": [
        {
          "name": "",
          "type": "uint256"
        }
      ],
      "payable": false,
      "stateMutability": "view",
      "type": "function",
      "signature": "0xda7fc836"
    },
    {
      "inputs": [],
      "payable": false,
      "stateMutability": "nonpayable",
      "type": "constructor",
      "signature": "constructor"
    },
    {
      "anonymous": false,
      "inputs": [
        {
          "indexed": false,
          "name": "_msg",
          "type": "string"
        }
      ],
      "name": "updateStatus",
      "type": "event",
      "signature": "0x2c215998d937f6b0fa143bb52b1dfc47b9b3b337476f05adda563da7e63b6d82"
    },
    {
      "constant": true,
      "inputs": [
        {
          "name": "_rub",
          "type": "uint256"
        }
      ],
      "name": "isOkay",
      "outputs": [
        {
          "name": "",
          "type": "bool"
        }
      ],
      "payable": false,
      "stateMutability": "view",
      "type": "function",
      "signature": "0x87b2efe9"
    },
    {
      "constant": false,
      "inputs": [
        {
          "name": "_rubric",
          "type": "uint256"
        },
        {
          "name": "_course_name",
          "type": "string"
        },
        {
          "name": "_instructor",
          "type": "string"
        },
        {
          "name": "_venue",
          "type": "string"
        },
        {
          "name": "_capacity",
          "type": "string"
        }
      ],
      "name": "addCourse",
      "outputs": [],
      "payable": false,
      "stateMutability": "nonpayable",
      "type": "function",
      "signature": "0xb313b94c"
    }
  ],
  "bytecode": "0x608060405234801561001057600080fd5b507f2c215998d937f6b0fa143bb52b1dfc47b9b3b337476f05adda563da7e63b6d826040518080602001828103825260128152602001807f436f6e7472616374206465706c6f79656421000000000000000000000000000081525060200191505060405180910390a16000600281905550600173f8f38992164f68ec32005415d825d01bbd50783090806001815401808255809150509060018203906000526020600020016000909192909190916101000a81548173ffffffffffffffffffffffffffffffffffffffff021916908373ffffffffffffffffffffffffffffffffffffffff16021790555050600173357d9375f60d6995f461097c82360d9bb0e009bb90806001815401808255809150509060018203906000526020600020016000909192909190916101000a81548173ffffffffffffffffffffffffffffffffffffffff021916908373ffffffffffffffffffffffffffffffffffffffff16021790555050600173720cc877b59356179770369c3791ce15ec5ccb9c90806001815401808255809150509060018203906000526020600020016000909192909190916101000a81548173ffffffffffffffffffffffffffffffffffffffff021916908373ffffffffffffffffffffffffffffffffffffffff160217905550506001739c57bfeeb60b875d393db23da251c3d48a93102f90806001815401808255809150509060018203906000526020600020016000909192909190916101000a81548173ffffffffffffffffffffffffffffffffffffffff021916908373ffffffffffffffffffffffffffffffffffffffff16021790555050600173f29a588bf516ec9a652bbfb423cf9b00b13ca8b190806001815401808255809150509060018203906000526020600020016000909192909190916101000a81548173ffffffffffffffffffffffffffffffffffffffff021916908373ffffffffffffffffffffffffffffffffffffffff16021790555050600173cd2fb51f9bd9fe572c91970e5b7248e94f3828d590806001815401808255809150509060018203906000526020600020016000909192909190916101000a81548173ffffffffffffffffffffffffffffffffffffffff021916908373ffffffffffffffffffffffffffffffffffffffff160217905550506001733d273d1223c0ed15d564f17befef1af12d9387f890806001815401808255809150509060018203906000526020600020016000909192909190916101000a81548173ffffffffffffffffffffffffffffffffffffffff021916908373ffffffffffffffffffffffffffffffffffffffff16021790555050610c89806103e66000396000f3fe608060405260043610610078576000357c0100000000000000000000000000000000000000000000000000000000900463ffffffff16806371e5ee5f1461007d57806387b2efe9146100f857806396f979d21461014b578063b313b94c1461034a578063d0d410a0146105e1578063da7fc8361461060c575b600080fd5b34801561008957600080fd5b506100b6600480360360208110156100a057600080fd5b810190808035906020019092919050505061065b565b604051808273ffffffffffffffffffffffffffffffffffffffff1673ffffffffffffffffffffffffffffffffffffffff16815260200191505060405180910390f35b34801561010457600080fd5b506101316004803603602081101561011b57600080fd5b8101908080359060200190929190505050610699565b604051808215151515815260200191505060405180910390f35b34801561015757600080fd5b506101846004803603602081101561016e57600080fd5b81019080803590602001909291905050506106f1565b6040518086815260200180602001806020018060200180602001858103855289818151815260200191508051906020019080838360005b838110156101d65780820151818401526020810190506101bb565b50505050905090810190601f1680156102035780820380516001836020036101000a031916815260200191505b50858103845288818151815260200191508051906020019080838360005b8381101561023c578082015181840152602081019050610221565b50505050905090810190601f1680156102695780820380516001836020036101000a031916815260200191505b50858103835287818151815260200191508051906020019080838360005b838110156102a2578082015181840152602081019050610287565b50505050905090810190601f1680156102cf5780820380516001836020036101000a031916815260200191505b50858103825286818151815260200191508051906020019080838360005b838110156103085780820151818401526020810190506102ed565b50505050905090810190601f1680156103355780820380516001836020036101000a031916815260200191505b50995050505050505050505060405180910390f35b34801561035657600080fd5b506105df600480360360a081101561036d57600080fd5b81019080803590602001909291908035906020019064010000000081111561039457600080fd5b8201836020820111156103a657600080fd5b803590602001918460018302840111640100000000831117156103c857600080fd5b91908080601f016020809104026020016040519081016040528093929190818152602001838380828437600081840152601f19601f8201169050808301925050505050505091929192908035906020019064010000000081111561042b57600080fd5b82018360208201111561043d57600080fd5b8035906020019184600183028401116401000000008311171561045f57600080fd5b91908080601f016020809104026020016040519081016040528093929190818152602001838380828437600081840152601f19601f820116905080830192505050505050509192919290803590602001906401000000008111156104c257600080fd5b8201836020820111156104d457600080fd5b803590602001918460018302840111640100000000831117156104f657600080fd5b91908080601f016020809104026020016040519081016040528093929190818152602001838380828437600081840152601f19601f8201169050808301925050505050505091929192908035906020019064010000000081111561055957600080fd5b82018360208201111561056b57600080fd5b8035906020019184600183028401116401000000008311171561058d57600080fd5b91908080601f016020809104026020016040519081016040528093929190818152602001838380828437600081840152601f19601f820116905080830192505050505050509192919290505050610987565b005b3480156105ed57600080fd5b506105f6610b8f565b6040518082815260200191505060405180910390f35b34801561061857600080fd5b506106456004803603602081101561062f57600080fd5b8101908080359060200190929190505050610b95565b6040518082815260200191505060405180910390f35b60018181548110151561066a57fe5b906000526020600020016000915054906101000a900473ffffffffffffffffffffffffffffffffffffffff1681565b600080600090505b6003805490508110156106e657826003828154811015156106be57fe5b906000526020600020015414156106d95760009150506106ec565b80806001019150506106a1565b50600190505b919050565b6000602052806000526040600020600091509050806000015490806001018054600181600116156101000203166002900480601f0160208091040260200160405190810160405280929190818152602001828054600181600116156101000203166002900480156107a35780601f10610778576101008083540402835291602001916107a3565b820191906000526020600020905b81548152906001019060200180831161078657829003601f168201915b505050505090806002018054600181600116156101000203166002900480601f0160208091040260200160405190810160405280929190818152602001828054600181600116156101000203166002900480156108415780601f1061081657610100808354040283529160200191610841565b820191906000526020600020905b81548152906001019060200180831161082457829003601f168201915b505050505090806003018054600181600116156101000203166002900480601f0160208091040260200160405190810160405280929190818152602001828054600181600116156101000203166002900480156108df5780601f106108b4576101008083540402835291602001916108df565b820191906000526020600020905b8154815290600101906020018083116108c257829003601f168201915b505050505090806004018054600181600116156101000203166002900480601f01602080910402602001604051908101604052809291908181526020018280546001816001161561010002031660029004801561097d5780601f106109525761010080835404028352916020019161097d565b820191906000526020600020905b81548152906001019060200180831161096057829003601f168201915b5050505050905085565b60008090505b600180549050811015610b87573373ffffffffffffffffffffffffffffffffffffffff166001828154811015156109c057fe5b9060005260206000200160009054906101000a900473ffffffffffffffffffffffffffffffffffffffff1673ffffffffffffffffffffffffffffffffffffffff161415610b7a57610a1086610699565b1515610a84576040517f08c379a00000000000000000000000000000000000000000000000000000000081526004018080602001828103825260178152602001807f436f7572736520616c726561647920657869737473212100000000000000000081525060200191505060405180910390fd5b600386908060018154018082558091505090600182039060005260206000200160009091929091909150555060a060405190810160405280878152602001868152602001858152602001848152602001838152506000806002548152602001908152602001600020600082015181600001556020820151816001019080519060200190610b12929190610bb8565b506040820151816002019080519060200190610b2f929190610bb8565b506060820151816003019080519060200190610b4c929190610bb8565b506080820151816004019080519060200190610b69929190610bb8565b509050506001600254016002819055505b808060010191505061098d565b505050505050565b60025481565b600381815481101515610ba457fe5b906000526020600020016000915090505481565b828054600181600116156101000203166002900490600052602060002090601f016020900481019282601f10610bf957805160ff1916838001178555610c27565b82800160010185558215610c27579182015b82811115610c26578251825591602001919060010190610c0b565b5b509050610c349190610c38565b5090565b610c5a91905b80821115610c56576000816000905550600101610c3e565b5090565b9056fea165627a7a72305820f1481b06550d8d131b0155c7786dac5168bcfdaa3a85ec28db786dae344672350029",
  "source": "pragma solidity ^0.5.0;\r\n\r\n// Contract Definition\r\ncontract Course {\r\n\t// Struct data structure to store the course information\r\n\tstruct Course_model {\r\n\t\tuint rubric;\r\n\t\tstring course_name;\r\n\t\tstring instructor;\r\n\t\tstring venue ;\r\n\t\tstring capacity;\r\n\t}\r\n\t// mapping data structure to index multiple courses added to the blockchain\r\n\tmapping (uint => Course_model) public courses;\r\n\t\r\n\t//registered users\r\n\taddress[] public arr;\r\n\r\n\t// number of courses added\r\n\tuint public no_courses;\r\n\r\n\t//array used to check for duplicate courses\r\n\tuint[] public rubric_list;\r\n\r\n\r\n\t// address owner;\r\n\t\r\n\t//to display message that the contract is deployed after constrctor is initialized\r\n\tevent updateStatus(string _msg);\r\n\t\r\n\t//Constructor\r\n\tconstructor () public {\r\n\t\temit updateStatus('Contract deployed!');\r\n\t\tno_courses=0;\r\n\t\t// Push all the addresses which should be given access to add_course to the address list array\r\n\t\tarr.push(0xF8F38992164f68ec32005415D825d01bbd507830); //Professor Ugo\r\n\t\tarr.push(0x357D9375f60D6995F461097C82360d9bB0e009BB); //Aditya\r\n\t\tarr.push(0x720Cc877b59356179770369c3791cE15ec5cCB9c); //Pranali\r\n \t\tarr.push(0x9C57BFEEb60B875d393dB23da251C3D48a93102f); //Adarsh\r\n \t\tarr.push(0xF29a588BF516EC9a652bBFB423CF9b00b13ca8b1); //Utkarsh\r\n \t\tarr.push(0xcD2fb51F9bd9fE572C91970E5B7248E94f3828d5); //Yogesh\r\n \t\tarr.push(0x3d273D1223C0ed15D564f17befef1af12D9387f8); //Vani\r\n\r\n\r\n\r\n\t}\r\n\t\t//converts the caller's address to string\r\n\t// \tfunction toString1(address x) internal pure returns (string memory) {\r\n\t//         bytes memory b = new bytes(20);\r\n\t//         for (uint i = 0; i < 20; i++)\r\n\t//             b[i] = byte(uint8(uint(x) / (2*(8(19 - i)))));\r\n\t//         return string(b);\r\n\t//     }\r\n\t\t\r\n\t\t//comapres strings (addresses)\r\n\t// \tfunction stringsEqual(address _a, string memory _b)  internal pure returns (bool) {\r\n\t// \tbytes memory a = bytes(_a);\t\r\n\t// \tbytes memory b = bytes(_b);\r\n\t// \tuint num1 = a.length;\r\n\t// \tuint num2 = b.length;\r\n\t// \tif (a.length != b.length)\r\n\t// \t\treturn false;\r\n\t// \t// @todo unroll this loop\r\n\t// \tfor (uint i = 0; i < a.length; i ++)\r\n\t// \t\tif (a[i] != b[i])\r\n\t// \t\t\treturn false;\r\n\t// \treturn true;\r\n// \t}\r\n\t\r\n\t// Function to check if the course being added is duplicate or not\r\n\tfunction isOkay(uint _rub) public view returns(bool) {\r\n\t\tfor (uint i=0; i<rubric_list.length; i++)\r\n\t\t\t{\r\n\t\t\t\tif(rubric_list[i]==_rub)\r\n\t\t\t\t{\r\n\t\t\t\t    return false;\r\n\t\t\t\t}\r\n\t\t\t}\r\n\t\t\treturn true;\r\n\t\t}\r\n\r\n\t\r\n\t//checks that only registered users can call the addCourse function\r\n\tmodifier ifIssuer()\r\n\t{\r\n\t\tfor (uint i=0; i<arr.length; i++)\r\n\t\t\t{\r\n\t\t\t\t// string memory senderString = toString1(msg.sender);\r\n\t\t\t\t// address user = arr[i];\r\n\t\t\t\t// if(stringsEqual(user, senderString))\r\n\t\t\t\t// \t_;\r\n\t\t\t\tif(arr[i]==msg.sender)\r\n\t\t\t\t{\r\n\t\t\t\t    _;\r\n\t\t\t\t}\r\n\t\t\t\t\r\n\t\t\t}\r\n\t}\r\n\r\n\t//Function to add courses\r\n\tfunction addCourse (uint _rubric, string memory _course_name , string memory _instructor, string memory _venue, string memory _capacity) public \r\n\tifIssuer{\r\n\r\n\t\t// to check is duplicate course is being added\r\n\t\tif(!isOkay(_rubric))\r\n\t\t{\r\n\r\n            //courseAdd.Visible = true;\r\n            // Throw exception to when a duplicate course is added\r\n\t\t\trevert('Course already exists!!');\r\n\r\n\t\t}\r\n\t\telse\r\n\t\t{\r\n\t\t\r\n\t\t// set msg.sender to run this fuction by specific users\r\n\t\trubric_list.push(_rubric); \t//add rubric to the rubric_list array\r\n\t\tcourses[no_courses] = Course_model(_rubric,_course_name,_instructor,_venue,_capacity);\t// append struct to the mapping function\r\n\t\tno_courses=no_courses+1;\t//append the the total number of courses added variable\r\n\t}\r\n\t}\r\n\t\r\n}\r\n",
  "sourcePath": "C:/Users/ADU/Desktop/ATSE V2/contracts/Course.sol",
  "compiler": {
    "name": "solc",
    "version": "0.5.0+commit.1d4f565a.Emscripten.clang"
  },
  "schemaVersion": "3.0.2",
  "updatedAt": "2019-05-01T17:51:44.019Z",
  "devdoc": {
    "methods": {}
  },
  "userdoc": {
    "methods": {}
  }
}